:020000040800F2
:10600000484C002029620008C5700008676D000830
:10601000556E000841690008BF7B000800000000C1
:106020000000000000000000000000009161000876
:106030004569000800000000D5610008C577000828
:10604000436200084362000843620008436200089C
:10605000436200084362000843620008A569000823
:1060600043620008F96900084362000843620008BF
:10607000436200084362000843620008436200086C
:10608000436200084362000843620008436200085C
:106090004362000843620008436200084D6A00083A
:1060A000436200084362000843620008436200083C
:1060B0003578000843620008436200084362000824
:1060C000436200084362000843620008436200081C
:1060D00043620008457B00084362000843620008F1
:1060E00049690008436200084362000800F002F8B2
:1060F00000F03EF80AA090E8000C82448344AAF124
:106100000107DA4501D100F033F8AFF2090EBAE821
:106110000F0013F0010F18BFFB1A43F001031847DB
:106120000C5000002C500000103A24BF78C878C1F1
:10613000FAD8520724BF30C830C144BF04680C608D
:10614000704700000023002400250026103A28BFD5
:1061500078C1FBD8520728BF30C148BF0B607047D9
:106160001FB59DE8030000F071FA1FBD10B510BD0A
:1061700000F04CFB1146FFF7F3FF01F0BDFD00F00E
:106180006AFB03B4FFF7F2FF03BC00F097FB0000CB
:10619000224B19680868B0E8F00F80F30988BFF354
:1061A0006F8F4FF0000080F311884EF00D0E704796
:1061B0000000000006480068006880F3088862B6A6
:1061C00061B6BFF34F8FBFF36F8F00DF00BF00BF1B
:1061D00008ED00E0EFF30980BFF36F8F0F4B1A68F3
:1061E00020E9F00F106008B54FF0BF0080F3118870
:1061F000BFF34F8FBFF36F8F02F0AEFD4FF0000083
:1062000080F31188BDE8084019680868B0E8F00F0D
:1062100080F30988BFF36F8F704700BF4C000020E8
:10622000EFF30580704700000948804709480047A0
:10623000FEE7FEE7FEE7FEE7FEE7FEE7FEE7FEE736
:10624000FEE7FEE704480549054A064B7047000093
:10625000D5770008ED60000848460020484C002033
:10626000484800204848002070B5064600F0D2F9A2
:10627000056806F10B0020F00704B4429CBF002023
:1062800070BD2B466A68BAB11068A04210D304F101
:10629000080188423CBF5068586007D35168101904
:1062A00041601168091B016058601460101D70BDC9
:1062B00013465268002AE7D12146284600F0B2F979
:1062C0000028DED170BD032A40F2308010F0030CAC
:1062D00000F0158011F8013BBCF1020F624498BF39
:1062E00011F801CB00F8013B38BF11F8013BA2F1D6
:1062F000040298BF00F801CB38BF00F8013B11F051
:10630000030300F02580083AC0F0088051F8043BF0
:10631000083A51F804CBA0E80810F5E7121D5CBF5D
:1063200051F8043B40F8043BAFF30080D20724BF90
:1063300011F8013B11F801CB48BF11F8012B24BF24
:1063400000F8013B00F801CB48BF00F8012B704773
:1063500010B5203AC0F00B80B1E81850203AA0E800
:106360001850B1E81850A0E81850BFF4F5AF5FEA34
:10637000027C24BFB1E81850A0E8185044BF18C9E7
:1063800018C0BDE810405FEA827C24BF51F8043B8E
:1063900040F8043B08BF7047D20728BF31F8023BE2
:1063A00048BF11F8012B28BF20F8023B48BF00F876
:1063B000012B704702F0FF0343EA032242EA024244
:1063C00000F002B84FF000020429C0F0128010F073
:1063D000030C00F01B80CCF1040CBCF1020F18BFC1
:1063E00000F8012BA8BF20F8022BA1EB0C0100F054
:1063F0000DB85FEAC17C24BF00F8012B00F8012B27
:1064000048BF00F8012B70474FF0000200B513465B
:1064100094469646203922BFA0E80C50A0E80C50C4
:10642000B1F12001BFF4F7AF090728BFA0E80C5075
:1064300048BF0CC05DF804EB890028BF40F8042B6E
:1064400008BF704748BF20F8022B11F0804F18BFDB
:1064500000F8012B70470000014900F055B9000019
:10646000B845002010B503681C1404EB21449BB20E
:1064700089B2194494FBF2F302FB134394FBF2F448
:1064800001EB034393FBF2F102FB113193FBF2F3B7
:1064900001E05B1E11440029FBDB016003EB0440BB
:1064A00010BD2DE9F04704464FF0FF3A86B0006872
:1064B000029060680390A0680490E06801902069F1
:1064C0000090656905F18040B0F1004F7DD83C2215
:1064D000002102A8FFF7C6FF3C22014603A8FFF7F0
:1064E000C1FF1822014604A8FFF7BCFF411E40F27D
:1064F000B55201A8FFF7B6FF0C22064668460021F8
:10650000FFF7B0FF00EB860028443E4D00267D4497
:106510000FE09A1A491CCDE90012022902D00C2979
:1065200007D104E0810704D0521C019201E0401C15
:1065300000960099019B6A5C9A42EADD012906D126
:106540001C2B04D1810702D00221CDE90016A0F155
:1065500046018B2940D20199009B00220F4602E0A0
:10656000AE5C521C31449A42FADB012B02DD8207F9
:1065700000D0491E40F2B55540F26D16C21700EB2F
:10658000927292106A4300F0030505FB062285070C
:106590000A4400D1521E049D02EB4206DDF80C8035
:1065A000A94605EBC605184EC5EB0515DDF808C074
:1065B00008EB850535442E14ADB2C6EB0616C5EBC7
:1065C0000515B6000CEB850500E005E006EB154669
:1065D00066F31F45360C03D0504606B0BDE8F08781
:1065E000C4E904307F1C0720521CC4E9029792FBC7
:1065F000F0F3E4E806C800FB132084E8030428460F
:10660000EBE700000E4C0000A039CEFD704770474C
:106610007047000000487047EC4500207047704705
:106620007047704738B504460A4600206946AFF304
:106630000080002808BF38BD02460099204600F0BF
:10664000C3F8012038BD012000F0D8B8F8B5AFF389
:106650000080054600200C46102000BF0646A81901
:10666000A0420DD9324669460020AFF300800700F2
:1066700008BF00F0C3F80098A04218BF0546C4192F
:10668000FFF7C8FF05600746F01D20F00700461918
:10669000284600F00AF8B44208BFF8BDA21B3146F4
:1066A0003868BDE8F84000F08FB800210160C0E90B
:1066B000011070471020704770B50446051FFFF7A2
:1066C000A9FF0068002C14BF446870BD002C18BFDF
:1066D000AC423CBF20466468F8D301680A18AA425D
:1066E00018BF456003D12A68054611440160286837
:1066F0004119A1421CBF6C6070BD6168696021686E
:106700000844286070BD000070B50C460168002088
:106710004A1C3ED03C22B1FBF2F302FB1313B1FB47
:10672000F2F12360B1FBF2F302FB1313B1FBF2F1C0
:1067300018226360B1FBF2F302FB1313B1FBF2F119
:1067400046F2E0320A440721A360B2FBF1F301FBF9
:10675000132140F2B553B2FBF3F5A161B2FBF3F1A3
:1067600003FB15228900B2F5B77F08D39B10521E98
:10677000B2FBF3F52944B2FBF3F503FB15220F4BF3
:10678000E261616189077B440CD03B2A0AD3521C29
:1067900008E02C212046FFF737FE0120E0600AE0E8
:1067A000521A401C195C9142FAD9521CC4E90320C8
:1067B0004FF0FF302062204670BD00009649000077
:1067C00000487047E4450020034640688C46002896
:1067D00018BF88423CBF03464068F8D31868184485
:1067E000884207D00CF1030020F00700001D411A79
:1067F000521A0146081D0A60FFF75EBF10B500F08F
:1068000035F8BDE8104000F02CB870477546FFF72A
:10681000D7FFAE4605006946534620F0070085467F
:1068200018B020B5FFF70EFDBDE820404FF0000680
:106830004FF000074FF000084FF0000B21F0070168
:10684000AC46ACE8C009ACE8C009ACE8C009ACE8AB
:10685000C0098D4670470446AFF300802046FFF71D
:1068600090FC002801D000F029B8704710B501282D
:1068700005D0002103A000F027F8012010BD09A1D8
:10688000F8E7000053494752544D454D3A204F75A3
:1068900074206F662068656170206D656D6F727918
:1068A000000000003A2048656170206D656D6F72D0
:1068B0007920636F727275707465640001491820E5
:1068C000ABBEFEE72600020070B505460C460A2066
:1068D00000E06D1C00F011F835B128780028F8D1DF
:1068E00002E0641C00F009F814B120780028F8D107
:1068F000BDE870400A20AFF3008008B569468DF806
:1069000000000320ABBE08BD08B501460020009082
:10691000034800900098084400900098008808BD43
:10692000006C004008B500220092044A0092009AD0
:1069300002440092009A116008BD0000006C004003
:1069400000BFFEE77047000010B54FF4006000F094
:10695000B3F801281CD1002000E0401C41F288312E
:106960008842FADB4FF400610A4800F0EEF958B9AA
:1069700000200949088001200849087002230022EC
:106980000748006802F074FB4FF4006000F08EF8D6
:1069900010BD0000000C014020000020020000207B
:1069A0002C00002010B5022000F086F801281AD132
:1069B000002000E0401C41F288318842FADB0221CD
:1069C000094800F0C2F958B900200849088002209F
:1069D0000749087000231A460648006802F048FB81
:1069E000022000F063F810BD000C014020000020E0
:1069F000020000202C00002010B5082000F05CF8F8
:106A000001281AD1002000E0401C41F28831884260
:106A1000FADB0821094800F098F958B90020084924
:106A2000088004200749087000231A4606480068B9
:106A300002F01EFB082000F039F810BD00080140EC
:106A400020000020020000202C00002010B5202093
:106A500000F032F8012820D1002000E0401C41F273
:106A600088318842FADB20210C4800F06EF988B9A1
:106A700000200B49088003200A49087000231A46A9
:106A80000948006802F0F4FA84B2012C02D00A200E
:106A900004490870202000F009F810BD00080140EA
:106AA00020000020020000202C0000200149086086
:106AB0007047000014040140014600200022074BEB
:106AC0001B6803EA0102054B14331B680B4013B12A
:106AD0000AB1012000E000207047000000040140DE
:106AE000002123498279002A3AD00A4612680368B5
:106AF0009A430B461A600A1D126803689A430B1DDD
:106B00001A60027911440A6803681A430A60184A35
:106B10000832126803689A43154B08331A601A1D2D
:106B2000126803689A43124B0C331A604279102A98
:106B30000ED11A1F126803681A430D4B08331A60EE
:106B40001A1D126803681A43094B0C331A600DE0D2
:106B50000749427911440A6803681A430A6005E04C
:106B6000027911440A6803689A430A60704700007A
:106B7000000401401CB50648012100234022CDE954
:106B8000001004A1064802F07FFB02F035F81CBD9E
:106B90001000002053746172745F5461736B0000C5
:106BA000E976000802682AB90160416081604860A6
:106BB000896006E082684A6082681160086041600E
:106BC0008160704770B505460E462020FFF74CFBEC
:106BD0000446656100202061E060A661206060607D
:106BE000A060E061204670BD026902B90161C86021
:106BF0007047000030B500228B071C0F0F2303FAEB
:106C000004F20B4B8C1053F824309343084C8D1036
:106C100044F8253023468C1053F824308C07240F79
:106C200000FA04F42343024C8D1044F8253030BDA3
:106C3000080001402DE9F041024600250026002011
:106C400000230024002791F803C00CF00F0591F8F1
:106C500003C00CF0100CBCF1000F03D091F802C07F
:106C60004CEA050591F800C0BCF1000F31D0146862
:106C700000202BE04FF0010C0CFA00F3B1F800C03B
:106C80000CEA03069E4220D183004FF00F0C0CFA51
:106C900003F7BC4305FA03FC4CEA040491F803C073
:106CA000BCF1280F06D14FF0010C0CFA00FCC2F821
:106CB00014C00AE091F803C0BCF1480F05D14FF0B1
:106CC000010C0CFA00FCC2F810C0401C0828D1D3FB
:106CD0001460B1F800C0BCF1FF0F34DD546800202F
:106CE0002EE000F1080C4FF0010808FA0CF3B1F89F
:106CF00000C00CEA03069E4221D183004FF00F0C26
:106D00000CFA03F7BC4305FA03FC4CEA040491F8BF
:106D100003C0BCF1280F05D100F1080C08FA0CF8EB
:106D2000C2F8148091F803C0BCF1480F07D100F1FC
:106D3000080C4FF0010808FA0CF8C2F81080401C4B
:106D40000828CED35460BDE8F08102460020936845
:106D50000B400BB1012000E0002070470AB1016137
:106D600000E04161704700BFFEE700001FB5012150
:106D7000082000F097FB0121042000F093FB012183
:106D8000084600F08FFB48208DF80F0040F6020007
:106D9000ADF80C0003208DF80E0003A92B48FFF777
:106DA00049FF2820ADF80C0003A92948FFF742FF4E
:106DB00001210846FFF71EFF0B210120FFF71AFFF4
:106DC00003210020FFF716FF05210020FFF712FF27
:106DD00040F62A00019001208DF80A0000208DF86D
:106DE00008000C208DF8090001A8FFF779FE4FF488
:106DF000407000F0A1F907208DF8000001208DF807
:106E000003000A208DF8010000208DF8020068467A
:106E100000F05AF90B208DF8010009208DF80000D0
:106E2000684600F051F90C208DF8010017208DF80C
:106E30000000684600F048F90D208DF80100282078
:106E40008DF80000684600F03FF91FBD000C0140BE
:106E50000008014000BFFEE710B53F493FA0FFF723
:106E6000B1FE40490860404940A0FFF7ABFE3D49F4
:106E700048600A4651681068FFF794FE3D493EA0FD
:106E8000FFF7A0FE374988600A4691681068FFF74F
:106E900089FE00213AA0FFF795FE3D4908600A46A9
:106EA0001168304A1068FFF79FFE002139A0FFF7F4
:106EB00089FE374948600A4651681068FFF772FE3C
:106EC000334A5168274A1068FFF78EFE002133A02D
:106ED000FFF778FE2E4988600A4691681068FFF730
:106EE00061FE2B4A91681F4A1068FFF77DFE002162
:106EF0002BA0FFF767FE2649C8600A46D1681068D4
:106F0000FFF750FE224AD168164A1068FFF76CFE60
:106F1000002125A0FFF756FE1D4908610A461169A8
:106F20001068FFF73FFE1A4A11690E4A1068FFF712
:106F30005BFE00211EA0FFF745FE154948610A4689
:106F400051691068FFF72EFE114A5169054A106811
:106F5000FFF74AFE10BD000020A80008796F757881
:106F600069000000A400002020AB000872696C6971
:106F70000000000020AE000874757069616E0000AA
:106F800077616E677A6865726F6E6779616F00000E
:106F9000B00000206D656E75000000006D656D002D
:106FA00074696D650000000063616962690000003A
:106FB00063616964616461646900000010B5012166
:106FC000080700F05FFA0121C80600F05BFA012013
:106FD00000F052FA0420FFF797FC4AF2A5518842CC
:106FE00020D0012000F08CFA00BF412000F06AFAA6
:106FF0000128FAD1000200F0A3FA012000F09AFA69
:1070000000F0ECFA00F0E0FA47F6FF7000F0CCFA7E
:1070100000F0DAFA00F030F84AF2A5510420FFF748
:1070200081FC03E000F0DAFA00F0CEFA10BD0000B7
:1070300010B58CB000F0A0FA00F5E1400B900BA861
:10704000FFF70AFA04462C2221466846FFF780F92A
:10705000059800F26C70074908800498401C48802D
:10706000039888800298C880019808810098488118
:107070000CB010BD0400002010B58CB01048008882
:10708000A0F26C7006900E484088401E05900C4897
:10709000808804900A48C0880390094800890290BB
:1070A00007484089019001A8FFF7FBF9A0F5E144EA
:1070B000204600F06BFA00F087FA0CB010BD00001B
:1070C000040000207047000070B5002100230F224B
:1070D000C47804B3154C246804F4E064C4F5E06497
:1070E000210AC1F10403CA40447804FA03F1847808
:1070F0001440214309010E4C0678A155047804F090
:107100001F050124AC4005786D11AD0005F1E025A7
:10711000C5F8004109E0047804F01F050124AC40E3
:10712000044D0678761145F8264070BD0CED00E060
:1071300000E400E080E100E002490143024A1160FE
:10714000704700000000FA050CED00E070B5002467
:107150000EE00021204600F06FF8002504E000203A
:1071600000F07AF9681CC5B2802DF8DB601CC4B24F
:10717000082CEEDB70BD70B5002406E0002500E0B1
:107180006D1CB5F57A7FFBD3641CB4F57A7FF5D31B
:1071900000F028FDAE2000F014FDD52000F011FD18
:1071A000802000F00EFDA82000F00BFD3F2000F035
:1071B00008FDD32000F005FD002000F002FD402076
:1071C00000F0FFFCA12000F0FCFCC82000F0F9FC5E
:1071D000DA2000F0F6FC122000F0F3FC812000F031
:1071E000F0FCCF2000F0EDFCD92000F0EAFCF1200B
:1071F00000F0E7FCDB2000F0E4FC302000F0E1FCD4
:10720000A42000F0DEFCA62000F0DBFC8D2000F0C6
:10721000D8FC142000F0D5FCAF2000F0D2FCFFF722
:1072200095FF70BD10B50246012000E050430B00F1
:10723000A1F10101FAD110BD70B505460C4645F02B
:10724000B00000F0BEFC102141EA141000F0B9FCBF
:1072500004F00F0000F0B5FC70BD00002DE9F04116
:1072600005460E461746721ED206110E6A1E5206BB
:10727000100EFFF7E1FF002409E0A7F12001134AF7
:1072800002EB0111085D00F0E7F8601CC4B2082CA5
:10729000F3DB721ED206110E6A1E012303EB4202BB
:1072A000D0B2FFF7C9FF00240BE0A7F12001074A85
:1072B00002EB011204F10801505C00F0CDF8601CF3
:1072C000C4B2082CF1DBBDE8F0810000F0970008A3
:1072D0002DE9F0470746884615469946DDF820A077
:1072E000002415E0A8F10102D1B27A1E2244D0B2E6
:1072F000FFF7A2FF002607E005FB04611AF8010072
:1073000000F0AAF8701CC6B2AE42F5DB601CC4B235
:107310004C45E7DBBDE8F08708B5044808231A466A
:107320003D2100900120FFF7D3FF08BDE0A7000832
:1073300070B500240EE03C212046FFF77DFF0025BC
:1073400004E0002000F088F8681CC5B2082DF8DBC6
:10735000601CC4B2082CEEDB70BD2DE9F0478046FE
:107360000E4617461D46002415E0281B411E0A2024
:10737000FFF758FFB7FBF0F00A21B0FBF1F201FB79
:10738000120000F130093019C1B24A464046FFF7F9
:1073900065FF601CC4B2AC42E7DBBDE8F0872DE9B5
:1073A000F04107460E461546002407E02A5D3019D5
:1073B000C1B23846FFF752FF601CC4B2285D0028F6
:1073C000F4D1BDE8F081000038B5FFF731FE204868
:1073D000C0880A2190FBF1F01E4901EB002408232C
:1073E0002022012108460094FFF772FF1848C08848
:1073F0000A2190FBF1F201FB1200164901EB002477
:10740000082320221E2101200094FFF761FF10486D
:1074100000890A2190FBF1F00E4901EB00240823BA
:107420002022452101200094FFF752FF08480089DF
:107430000A2190FBF1F201FB1200064901EB002446
:1074400008232022612101200094FFF741FF38BD6D
:1074500004000020E09D000810B5044600F01EFC6A
:10746000782000F0EFFB402000F0ECFB204600F01D
:10747000E9FB00F02DFC10BD0149086270470000D7
:1074800000000E4229B1064AD2690243044BDA6178
:1074900004E0034AD2698243014BDA61704700007D
:1074A0000010024029B1064A92690243044B9A61D6
:1074B00004E0034A92698243014B9A6170470000DD
:1074C0000010024010B501460022002300204A119E
:1074D000012A02D1094C236806E0022A02D1074C96
:1074E000236A01E0054C636A01F01F020124944005
:1074F0001C400CB1012000E0002010BD0010024033
:1075000000210B4A11700A4A203A82F82010012803
:1075100002D0042808D103E00121054A117004E0DB
:107520000521034A117000E000BF00BF7047000052
:107530002010024001490860704700003C044242AC
:107540000249096A0143014A116270470010024072
:107550000348008840F0100001490880704700008F
:1075600004280040034800884FF6EF7108400149A5
:107570000880704704280040002103480188001F4C
:10758000008841EA004070471C28004000B50246D0
:10759000FFF7DEFF100C03490880091D0A80FFF782
:1075A000E1FF00BD1828004000B50246FFF7D0FFFC
:1075B000C2F3034003490880091D0A80FFF7D2FF88
:1075C00000BD00000828004000BF0348008800F00C
:1075D00020000028F9D070470428004007480088A0
:1075E0004FF6F77108400549088000BF034800883E
:1075F00000F008000028F9D070470000042800407F
:1076000010B500F001F810BD0CB5002001900090FD
:107610003348006840F480303149086000BF30488A
:10762000006800F4003000900198401C0190009820
:1076300018B90198B0F5A06FF1D12948006800F49D
:10764000003010B10120009001E00020009000986F
:10765000012843D12348006840F010002149086008
:107660000846006820F0030008600846006840F003
:10767000020008601A484068194948600846406896
:1076800048600846406840F48060486008464068AA
:1076900020F47C1048600846406840F4E8104860D8
:1076A0000846006840F08070086000BF0C48006821
:1076B00000F000700028F9D00948406820F003006D
:1076C000074948600846406840F00200486000BF33
:1076D0000348406800F00C000828F9D10CBD0000F8
:1076E00000100240002002401CB5044601F0E8F8FA
:1076F000214801231A464FF47A7100901FA002F02E
:1077000007F8204908602048022100234022CDE9E3
:1077100000101EA11F4801F0B7FD1F4803210023E0
:107720004022CDE900101DA11E4801F0ADFD1E480C
:10773000042100232022CDE900101CA11D4801F0E6
:10774000A3FD00220121084601F078FB1A490860D8
:107750001548006819490968C8611948006801F0AE
:1077600043F90D48006801F083FA0F48006801F002
:107770007FFA01F0B7F81CBDF587000874696D65E4
:107780007231000024000020140000205461736B4B
:107790003100000075780008180000205461736BF8
:1077A00032000000357900081C0000205461736B22
:1077B00033000000D17A00082C000020B000002027
:1077C0001000002010B501F093FD012801D001F058
:1077D0001BFB10BD10B51348006840F001001149B3
:1077E000086008464068104908400E49486008464D
:1077F00000680E4908400B4908600846006820F4FC
:10780000802008600846406820F4FE0048604FF47D
:107810001F008860FFF7F4FE4FF000600449086025
:1078200010BD0000001002400000FFF8FFFFF6FE50
:1078300008ED00E010B50121880700F00AF80128E2
:1078400003D10121800700F001F810BDCA43028274
:10785000704730B50246002000230024158A05EA4F
:107860000103958905EA010413B10CB1012000E080
:10787000002030BD08B501F04BFD04464FF0FF304D
:1078800000232246012100902548006801F07AFF7C
:1078900045E024480088401C2249088000222249F3
:1078A0002248006801F03EFC1F480078032806D1FA
:1078B00000201D4908701E48006801F047F919486A
:1078C0000088042825DD4FF0E020006920F0010049
:1078D0004FF0E0210861FFF739FC00210820FFF795
:1078E000E1FD00211020FFF7DDFD30BF0121082060
:1078F000FFF7D8FD01211020FFF7D4FD4FF0E02065
:10790000006940F001004FF0E021086100200549C6
:107910000880FFF759FD4FF47A7001F04BF8B8E793
:107920002400002020000020280000202C0000203F
:107930001800002008B56148006801F099F94FF07F
:10794000FF3000231A46032100905D48006801F0D3
:1079500019FF0125FFF7FAFB5A480468A0690823BC
:1079600060221E2100900120FFF7B2FCA5E000225A
:1079700055495648006801F0D5FB53480078012866
:107980000DD1FFF7E3FB2468002D6FD0A069082319
:1079900060221E2100900120FFF79AFC66E04A4811
:1079A000007802280DD1FFF7D1FB6468002D5DD06F
:1079B000A069082360221E2100900120FFF788FCA7
:1079C00054E041480078032812D1FFF7BFFBE0697B
:1079D00040B13DB9E06901F0B9F8002001F048F983
:1079E000FFF7B4FB2069002840D0246900253DE062
:1079F00035480078042839D1FFF7A8FB65B32F4834
:107A0000006801F0A3F801F083FC06464FF0FF3058
:107A100000233246012100902948006801F0B2FE9F
:107A2000002001F025F9FFF791FBA06908236022EF
:107A30001E2100900120FFF74BFC2048006801F058
:107A400017F94FF0FF3000231A46032100901C481D
:107A5000006801F097FE09E0E4680125A0690823A9
:107A600060221E2100900120FFF732FCF5B90121B0
:107A700008466269FFF793FC3C220F210120FFF7C3
:107A8000EDFB2068012142690220FFF788FC206895
:107A90000068012142690320FFF781FC206800682B
:107AA0000068012142690420FFF779FC00200649A3
:107AB00008704FF4FA7000F07DFF58E714000020C2
:107AC00024000020A4000020280000202C0000201A
:107AD000FFF73CFB27E0002213491448006801F03F
:107AE00021FB1148007804280BD100200E490870B2
:107AF0000F48006801F02AF8002001F0B9F8FFF7FC
:107B000025FB0CA201210846FFF749FC01F054F9BE
:107B100004460423224601210220FFF71EFC4FF4F5
:107B20007A7000F047FFD6E7280000202C000020E4
:107B3000180000206C617374206D656D6F72792080
:107B40006973200010B540F22551094800F025F86E
:107B500001280CD1064800F02DF8064908700120D4
:107B60000549087040F22551014800F007F810BDA2
:107B700000380140000000200100002010B5002264
:107B8000002340F66A14A14200D100BF0A1201246A
:107B90009440A3B2DC43048010BD02460020B1F53E
:107BA000007F00D100BF13880B400BB1012000E023
:107BB0000020704701468888C0F30800704700BF66
:107BC000FEE710B5044600F069F8782000F03AF8B6
:107BD000002000F037F8204600F034F800F078F884
:107BE00010BD000008B501210820FFF75BFC012152
:107BF0001020FFF757FC14208DF803004FF480701D
:107C0000ADF8000003208DF8020069460C48FFF72C
:107C100011F84FF40070ADF8000003208DF8020059
:107C200069460748FFF706F8012211020448FFF7EA
:107C300095F8012251020248FFF790F808BD0000B4
:107C4000000C014070B50546002400BF15E08020FF
:107C5000204100EA05024FF400710F48FFF77EF85B
:107C6000012211020C48FFF779F800224FF48071CD
:107C70000948FFF773F8601CC4B2082CE7DB012247
:107C800011020548FFF76AF800224FF4807102489C
:107C9000FFF764F870BD0000000C014010B5012230
:107CA00051020A48FFF75AF8012211020748FFF76C
:107CB00055F800224FF400710448FFF74FF80022F6
:107CC0004FF480710148FFF749F810BD000C0140E6
:107CD00010B500224FF400710648FFF73FF801226B
:107CE00011020448FFF73AF8012251020148FFF758
:107CF00035F810BD000C0140074808490860FFF73F
:107D00003AFAFFF733F8FFF759F9FFF7A5F8FEF74E
:107D100031FF00BFFEE700000060000808ED00E052
:107D20002DE9F04105460E462648076826480068BA
:107D3000001D00F075FD50B92348006890F82C1024
:107D40000120884021490968814320480160681C5E
:107D5000D8B9D6B11E4948681B49096888601A49D4
:107D600082680968CA6018490968091D82685160FB
:107D700015490968091D8160154A134909684A6156
:107D800011460968491C11601AE07C190E48006808
:107D90004460BC4207D20C480168091D0D480068C8
:107DA00000F068FD0CE008480168091D0A480068F9
:107DB00000F060FD09480068844201D20748046071
:107DC000BDE8F081600000204C000020640000202D
:107DD0007C45002054000020500000207C00002042
:107DE00010B5044600F06CFD31480068401C304975
:107DF00008603048006840B92E48046008460068B2
:107E000001280DD100F0D8F90AE02B48006838B9F4
:107E100028480068C06AE16A884201D825480460A1
:107E200026480068401C25490860084600686064D0
:107E300094F82C1001208840214909680843204902
:107E40000860E16A01EB81011E4A02EB810148688A
:107E5000A0608268E260211D826851608160E16AF1
:107E600001EB8101174A02EB81026261E16A01EBD9
:107E70008101144A52F82110491CE26A02EB820285
:107E8000104B43F8221000F02DFD0B48006868B13C
:107E900008480068C06AE16A884207D24FF0805003
:107EA00009490860BFF34F8FBFF36F8F10BD00000B
:107EB0005C0000204C0000206800002078000020BA
:107EC00064000020C844002004ED00E010B500F07C
:107ED000F7FC0C48006890B90B4800F0BBFC0B485D
:107EE00000F0B8FC08480A490860084809490860D9
:107EF00000220C21052000F0A1FF0249086000F0DB
:107F0000F1FC10BD9400002090450020A445002005
:107F10008C0000209000002010B516E000F0D0FC8E
:107F20000C48C068C468201D00F07AFC0A4800684C
:107F3000401E0949086009480068401E074908605A
:107F400000F0D0FC204600F055F8044800680028F6
:107F5000E4D110BD684500205C00002058000020DE
:107F600070B504460D46206C70B1216CE068014488
:107F7000E160D4E90210884201D32168E16028461B
:107F8000226CE168FEF79FF970BD2DE9F0410446CF
:107F90000F4615464FF00008A66B206C28B37DB93C
:107FA0003946226C6068FEF78EF9216C60680844DF
:107FB0006060D4E90101884217D32068606014E052
:107FC0003946226CE068FEF77EF9216CE068411AC0
:107FD000E1602168E068884203D2216CA068411A00
:107FE000E160022D01D106B1761E701CA0634046EF
:107FF000BDE8F08110B50446206B00F083FC2046FC
:1080000000F080FC10BD00000146084A12681268AA
:108010000AB9012200E000220A600A6822B9034A74
:108020001268D268106800E0002070478C000020C1
:1080300030B54FF48843154800F007042CB1C01D3B
:1080400020F00700114C041B1B1B0246104C226041
:1080500000240F4D6C60D018083820F007000D4C3C
:10806000206000240B4D2D686C600A4D2D682C603B
:108070001146441A4C60074C24680C60064D4C684D
:108080002C60064D4C682C6030BD0000C8000020FC
:108090003000002038000020400000203C0000207C
:1080A00000BFFFF739FF064800680128F9D94FF0F3
:1080B000805004490860BFF34F8FBFF36F8FF0E724
:1080C000C844002004ED00E02DE9F04106460D46CD
:1080D00017469846069C0DB9246000E02760E663C9
:1080E00025640121204600F0CFFE84F85080002056
:1080F000A064BDE8F0812DE9F05F81460E46174689
:108100009A46DDF828800C9CB900A522206BFEF76A
:1081100051F9781E216B01EB800B2BF0070B7EB120
:10812000002507E0715D04F134004155705D00B930
:1081300002E06D1C102DF5D300BF00214320015536
:10814000B8F1050F01D34FF00408C4F82C80201DAE
:1081500000F08DFB04F1180000F089FB2461C8F1E8
:108160000500A061646252464946584600F030FB63
:1081700020600B9808B10B980460BDE8F09F2DE9D2
:10818000F04705460E4617469846DDE90894FFF786
:108190009DFE2560A661C4F81C80C4F82090201DB7
:1081A00000F065FB2FB194F8280040F0040084F83B
:1081B0002800BDE8F087000010B5002407E004EBBC
:1081C00084010F4A02EB810000F044FB641C052C83
:1081D000F5D30C4800F03EFB0B4800F03BFB0B488E
:1081E00000F038FB0A4800F035FB0A4800F032FB8B
:1081F00004480949086004480849086010BD0000A7
:10820000C84400202C450020404500205445002053
:10821000684500207C4500205000002054000020CC
:1082200010B50146164800E0006803688B42FBD396
:108230000246436813448B4204D143684C6823448C
:10824000436001460A464B6813440468A34211D1B7
:108250000C4C03682468A34208D04B680468646827
:1082600023444B6003681B680B6005E0054B1B68EB
:108270000B6001E003680B60884200D0016010BD14
:1082800030000020380000202DE9F04104460D4662
:1082900016461F464FF0000865602461B5420CD8B1
:1082A000F01BA169884202D34FF0010811E0211DA3
:1082B0000948006800F0DEFA0BE0BE4204D2BD427D
:1082C00002D34FF0010804E0211D0448006800F0CB
:1082D000D1FA4046BDE8F081900000208C000020DB
:1082E00070B5054600F0ECFAA86B08B9012400E06F
:1082F000002400F0F7FA204670BD70B5054600F086
:10830000DFFAA86BE96B884201D1012400E0002468
:1083100000F0E8FA204670BDF1B50098846C0026A4
:10832000A06BE16B884221D294F945500022694646
:108330002046FFF72AFE0646681C60B9606A08B945
:10834000012000E0002080B904F1240001F0AEF823
:1083500058B1012609E000F077FA0746BD4203D282
:10836000681C40B284F8450000BF00BF3046F8BD2D
:1083700070B505460E460E480068C068C468201DEA
:1083800000F04EFA94F8280000F0040028B13246BC
:108390002946204600F0C4F805E094F8280000F0D3
:1083A000FE0084F828002046216A884770BD00003E
:1083B0008C0000207FB56EE0019800286BDB039CE9
:1083C000606908B9012000E0002010B9201D00F00C
:1083D00027FA684600F0D0F8054601980A2858D2D6
:1083E000DFE800F05705072E364706082F3700BF95
:1083F00000BF00BF94F8280040F0010084F8280076
:108400000298A269811803462A462046FFF73CFFDE
:10841000A8B194F8280000F0040038B10298A269CD
:1084200081182A46204600F07BF805E094F82800E1
:1084300000F0FE0084F828002046216A884729E0E1
:1084400000BF94F8280000F0FE0084F8280021E026
:1084500000BF94F8280040F0010084F8280002983A
:10846000A061A06941192B462A462046FFF70CFF60
:1084700010E094F8280000F0020018B9204600F03F
:1084800041FA05E094F8280000F0FE0084F8280086
:1084900000E000BF00BF002201A90348006800F00F
:1084A00041FE002888D17FBD94000020F8B5054624
:1084B0000C4600F049FC684600F05EF8064600985D
:1084C00020BB44B9B54206D801F074F831462846BD
:1084D000FFF74EFF1CE03CB10E480068006808B989
:1084E000012000E000200446A91B22460A4800683B
:1084F00000F03AFA01F05EF850B94FF080500749A9
:108500000860BFF34F8FBFF36F8F01E001F052F8A7
:10851000F8BD0000900000209400002004ED00E071
:1085200070B504460D46164604E0A0690544204691
:10853000216A8847A06941192B4632462046FFF739
:10854000A3FE0028F1D170BD09480068006808B991
:10855000012000E0002020B14FF0FF300549086005
:1085600005E003480068C068006802490860704779
:10857000500000207C00002070B5044600F0C8FECA
:10858000054607480068854204D200F00BF8012038
:10859000206001E00020206001480560284670BD91
:1085A0009C00002070B508E00D480068C0680468B1
:1085B0004FF0FF312046FFF7DBFE094800680068F6
:1085C00008B9012000E000200028EDD0044805682B
:1085D00004480068024908600248056070BD000058
:1085E0008C0000209000002000BFBF2080F3118885
:1085F000BFF34F8FBFF36F8F00BF00BFFEE70000D8
:1086000010B5014600200A460B4C5369A34201D124
:10861000012300E0002373B1084C936AA34201D107
:10862000012300E0002333B9936A0BB9012300E072
:10863000002303B1012010BD7C45002054450020DB
:1086400008B500BF6846FFF7DFFC044620460099E6
:10865000FFF72CFFFFF7AEFEF4E770B5044600F01D
:108660002FF994F9455019E0A06C30B12046FFF77E
:1086700053FE88B100F02EFA0EE0606A08B90120BE
:1086800000E0002038B904F1240000F00FFF18B119
:1086900000F020FA00E003E0681E45B2002DE3DCA4
:1086A00000BFFF2084F8450000F01CF900F008F935
:1086B00094F9445010E0206908B9012000E000203E
:1086C00048B904F1100000F0F1FE08B100F002FA20
:1086D000681E45B200E001E0002DECDC00BFFF2089
:1086E00084F8440000F0FEF870BD00002DE9F0476A
:1086F00005464FF0000900F027FB3048006808B934
:10870000FFF796FC75B105F00700C0F11008C8F13D
:10871000FF30A84201D2012000E0002008B9454402
:1087200000E00025012000EBE570002841D0002D7D
:108730003FD02348006885423BD8224E304604682B
:1087400001E0264624686068A84202D2206800281A
:10875000F7D11A48006884422BD0306800F108092C
:10876000206830606068401B102807D9671960686E
:10877000401B786065603846FFF752FD104960681D
:108780000968081A0E490860084600680E49096819
:10879000884203D20A4800680B490860606840F0CC
:1087A000004060600020206008480068401C0749C5
:1087B000086000F0FFFE4846BDE8F0873800002062
:1087C0003C00002030000020400000204400002039
:1087D000001F4FF080730360001F21F0010303604E
:1087E000001F034B036014380260203870470000FC
:1087F000E985000810B504460848007810B1FEF776
:1088000097FD01E0FEF788FD0448007808B90120D3
:1088100000E000200149087010BD00002900002080
:1088200001460A69D1E901309860D1E90103586035
:108830005068884201D18868506000200861106843
:10884000401E1060106870470148006870470000C3
:108850005C00002000F1080141604FF0FF318160B1
:1088600000F10801C1600161002101607047002131
:108870000161704710B502460B685C1C0CB91069A9
:1088800007E002F1080000E04068446824689C4268
:10889000FAD944684C604C68A160886041600A6104
:1088A0001468641C146010BD42684A6093688B6051
:1088B000936859609160086103685B1C03607047AE
:1088C00000BFBF2080F31188BFF34F8FBFF36F8FBE
:1088D00000BF03480068401C014908607047000061
:1088E000A000002006480068401E054908600846B0
:1088F000006820B9002080F3118800BF00BF7047D6
:10890000A000002070B506463546E6B1083D2C466D
:108910006068C00FB8B12068A8B9606820F0004056
:10892000606000F011FA0849606809680844064967
:1089300008602046FFF774FC04480068401C0349A7
:10894000086000F037FE70BD3C00002048000020A9
:1089500000204FF0E021086188610248486107204B
:10896000086170473F1901002DE9F04105460E46A8
:1089700017462C46FFF7A4FF94F94400401C10B999
:10898000002084F8440094F94500401C10B90020F0
:1089900084F84500FFF7A6FFA06B28B93A46314698
:1089A00004F1240000F0ACF82046FFF756FEBDE8C5
:1089B000F081000070B50446002544B100F0C4F910
:1089C00000212046FFF7ACF900F0F4FD05463DB963
:1089D0004FF0805003490860BFF34F8FBFF36F8F94
:1089E00070BD000004ED00E070B50546FFF768FFBC
:1089F00015B92948006800E028460446201DFFF705
:108A00000FFF78B9E06A00EB8000244951F820009C
:108A100040B994F82C10012088402149096881430D
:108A20001F480160A06A18B104F11800FFF7F8FEB2
:108A30001C480068401C1B490860174800688442B5
:108A400009D1211D1848FFF72FFF18480068401C66
:108A50001649086006E016480068401E1449086080
:108A6000FFF772FDFFF73EFF0B480068844202D01B
:108A70002046FFF7BFFA0F48006858B10648006863
:108A8000844207D14FF080500B490860BFF34F8FED
:108A9000BFF36F8F70BD00004C000020C844002061
:108AA0006400002078000020684500205800002065
:108AB0005C0000206800002004ED00E00349096824
:108AC000016003490968416070470000740000209C
:108AD00060000020012001490860704770000020FC
:108AE00070B505460C460548016818312846FFF761
:108AF000C1FE01212046FFF713F970BD4C00002094
:108B000070B504460E46154660680F490968C8618D
:108B10000D49826809680A620B4909681831826840
:108B200051600949096818318160074909688C62F8
:108B30002168491C21600DB14FF0FF3629463046AF
:108B4000FFF7EEF870BD00004C00002070B5054640
:108B50002C4625480068844245D0002C43D0FFF7BE
:108B6000AFFE2046FFF74CFDD8B3201DFFF758FE9F
:108B700094F82C10012088401C49096808431B49BF
:108B80000860E16A01EB8101194A02EB8101486842
:108B9000A0608268E260211D826851608160E16AA4
:108BA00001EB8101124A02EB81026261E16A01EB91
:108BB00081010F4A52F82110491CE26A02EB82023D
:108BC0000B4B43F822100849E06A0968C96A8842D9
:108BD00007D34FF0805007490860BFF34F8FBFF3B2
:108BE0006F8FFFF77FFE70BD4C00002064000020F7
:108BF000C844002004ED00E01CB5154800210B46D8
:108C00008022CDE9001013A1144800F03DFB04467A
:108C1000012C02D100F098FD0446012C14D100BFB4
:108C2000BF2080F31188BFF34F8FBFF36F8F00BF5A
:108C30004FF0FF300A49086001200A49086000200F
:108C40000949086000F0BEF8084800681CBD000033
:108C50008000002049444C4500000000A18000082D
:108C60007C000020680000206000002084000020BC
:108C700070B50546FFF724FE15B92C48006800E0E2
:108C800028460446201DFFF7CBFD78B9E06A00EBCB
:108C90008000274951F8200040B994F82C10012099
:108CA000884024490968814322480160A06A18B1BC
:108CB00004F11800FFF7B4FD211D1F48FFF7F4FD74
:108CC000002009E004F15001095C012903D10022D0
:108CD00004F150010A54401C0128F3DBFFF702FEA7
:108CE0001648006828B1FFF7EBFDFFF72DFCFFF7F2
:108CF000F9FD0E480068844217D11048006840B161
:108D00004FF080500E490860BFF34F8FBFF36F8F55
:108D10000BE0094800680B490968884203D100202C
:108D20000249086001E000F017F870BD4C00002017
:108D3000C8440020640000207C450020680000201A
:108D400004ED00E05C00002002480068401C01497E
:108D500008607047880000201248006818B10120A0
:108D6000114908601DE000200F4908600F480068A5
:108D7000B0FA80F0C0F11F0101EB81020C4B03EB54
:108D8000820042685268426000F1080243689342E0
:108D900002D14268526842604268D268054B1A604C
:108DA00000BF704788000020700000206400002091
:108DB000C84400204C0000200148006870470000B3
:108DC0003C00002010B50E48006840F47F000C49BC
:108DD00008600846006840F07F400860FFF7B8FD73
:108DE000002080F3118800BF00200649086000BF02
:108DF00080F3118800BFFDF7DDF9002010BD0000F1
:108E000020ED00E0A000002010B500BFBF2080F3DF
:108E10001188BFF34F8FBFF36F8F00BF00F07EFA52
:108E200018B14FF080500449086000BF002080F363
:108E3000118800BF10BD000004ED00E02DE9F843EB
:108E400004460E4617460025DCB1681EB0FBF4F060
:108E5000B04216D304FB06F010F1550F11D804FBF5
:108E600006F909F15400FFF741FC05464DB1A8464B
:108E700008F154083B464246314620460095FFF72C
:108E800023F92846BDE8F8832DE9F04105460E4652
:108E900001272C46002C41D0E06B00283ED0B91EA3
:108EA000E06BB1FBF0F0216C884237D3FFF708FD8F
:108EB000D4E90F12206801FB0200A0600020A0632B
:108EC00020686060E06B401E226C216800FB02118C
:108ED000E160FF2084F8440084F845009EB92069D1
:108EE00008B9012000E00020A8B904F1100000F04A
:108EF000DDFA80B14FF080500A490860BFF34F8F10
:108F0000BFF36F8F07E004F11000FFF7A3FC04F13B
:108F10002400FFF79FFCFFF7E5FC00E00027384640
:108F2000BDE8F08104ED00E02DE9FF4782B007467F
:108F300088461D464FF000093C4600BFFFF7C0FCC5
:108F4000A06BE16B884201D3022D3ED1D4F838A04A
:108F50002A4641462046FFF718F80646A06C88B11D
:108F6000022D02D1BAF1000F29D12046FFF7D4F922
:108F700028B34FF080503D490860BFF34F8FBFF3D7
:108F80006F8F1CE0606A08B9012000E0002068B91A
:108F900004F1240000F08AFA88B14FF08050334980
:108FA0000860BFF34F8FBFF36F8F08E03EB14FF003
:108FB00080502E490860BFF34F8FBFF36F8FFFF7CC
:108FC00091FC012006B0BDE8F087049818B9FFF7BE
:108FD00089FC0020F6E7B9F1000F04D16846FFF7DD
:108FE0006DFD4FF00109FFF77DFCFFF7ADFEFFF7C8
:108FF00067FC94F94400401C10B9002084F8440038
:1090000094F94500401C10B9002084F84500FFF792
:1090100069FC04A9684600F007F9F8B92046FFF793
:109020006CF9A8B104F110000499FFF759FD20462E
:10903000FFF713FB00F0BEFA00287FF47FAF4FF07C
:1090400080500A490860BFF34F8FBFF36F8F75E7F9
:109050002046FFF702FB00F0ADFA6FE72046FFF76E
:10906000FCFA00F0A7FA0020ACE7000004ED00E0F5
:109070002DE9FF4F81B0064615461F46344600BF16
:10908000BF21EFF3118081F31188BFF34F8FBFF33E
:109090006F8F00BF8146A06BE16B884201D3022F26
:1090A00036D194F945A0A06B00903A46204602992B
:1090B000FEF76BFF0AF10100E0B9A06C58B1022F76
:1090C00001D1009808BB2046FFF726F9E8B1E5B1C9
:1090D0000120286019E0606A08B9012000E0002042
:1090E00098B904F1240000F0E1F970B16DB10120EC
:1090F00028600AE0FFF7A8FB8346DA4504D20AF1AC
:10910000010040B284F8450000BF4FF0010801E0C3
:109110004FF0000800BF89F3118800BF404605B03A
:10912000BDE8F08F2DE9F74183B005460F464FF0BB
:1091300000082C4600BFFFF7C3FBA66BF6B139460B
:109140002046FEF70DFF701EA063206908B90120BC
:1091500000E0002060B904F1100000F0A7F938B178
:109160004FF080502F490860BFF34F8FBFF36F8FD0
:10917000FFF7B8FB012006B0BDE8F081059818B9EB
:10918000FFF7B0FB0020F6E7B8F1000F04D101A80B
:10919000FFF794FC4FF00108FFF7A4FBFFF7D4FDA5
:1091A000FFF78EFB94F94400401C10B9002084F8AE
:1091B000440094F94500401C10B9002084F8450093
:1091C000FFF790FB05A901A800F02EF8F0B92046A2
:1091D000FFF786F8A0B104F124000599FFF780FCA1
:1091E0002046FFF73AFA00F0E5F90028A3D14FF046
:1091F00080500C490860BFF34F8FBFF36F8F9AE721
:109200002046FFF72AFA00F0D5F994E72046FFF749
:1092100024FA00F0CFF92046FFF762F800288AD040
:109220000020A8E704ED00E070B506460C46FFF705
:1092300047FB134802687068131A2068401C08B97D
:10924000002519E00F4930680968884206D0706827
:10925000904203D80125002020600DE0206898424C
:1092600007D92068C01A20603046FFF727FC002588
:1092700002E0002020600125FFF734FB284670BD86
:1092800060000020740000202DE9FF4F85B080466B
:1092900089461746DDE912ABB800FFF727FA064604
:1092A00076B15420FFF722FA04462CB1542120460F
:1092B000FDF7AAF8266304E03046FFF723FB00E041
:1092C00000247CB10020CDE900ABCDE902403A4654
:1092D00049464046089BFEF70EFF2046FEF780FDFC
:1092E000012501E04FF0FF35284609B0BDE8F08FB9
:1092F0000549096809B9012005E00449096809B967
:10930000022000E000207047680000208800002054
:109310000149086870470000600000202DE9F04115
:1093200000275748006800287ED156480068451C31
:10933000544805608DB95448D0F8008053480068FF
:10934000514908605148C0F8008051480068401CED
:109350004F490860FFF7F8F800BF4E4800688542A3
:1093600076D300BF48480068006808B9012000E0D3
:10937000002020B14FF0FF304649086067E04248C6
:109380000068C068C4686668B54202D24148066099
:109390005DE06069D4E902128A60D4E902214A6082
:1093A000211D42688A4201D1E16841600022626168
:1093B0000168491E0160A06A98B1A06AD4E9071249
:1093C0008A60D4E907214A6004F1180142688A42A0
:1093D00001D1216A41600022A2620168491E016038
:1093E00000BF94F82C10012088402B4909680843DD
:1093F00029490860E16A01EB8101284A02EB8101F9
:109400004868A0608268E260211D826851608160C6
:10941000E16A01EB8101214A02EB81026261E16AAA
:1094200001EB81011D4A00E022E052F82110491CA5
:10943000E26A02EB8202194B43F822101849E06AF3
:109440000968C96A88428DD901278BE700E000BF0F
:1094500013480068C06A00EB8000104951F82000F2
:10946000012800D901270F48006800B1012704E056
:109470000D480068401C0C4908603846BDE8F08182
:1094800088000020600000205000002054000020D0
:10949000740000207C00002064000020C8440020EC
:1094A0004C000020700000206C00002070B50346C6
:1094B000D868C168886AD1E90745A560D1E9075431
:1094C000656001F118044568A54201D10C6A446049
:1094D00000258D620468641E04603048006800281E
:1094E0003DD14869D1E90245A560D1E902546560E2
:1094F0000C1D4568A54201D1CC68446000254D6132
:109500000468641E046091F82C400120A040244CA3
:1095100024682043224C2060CC6A04EB8404214D53
:1095200005EB8404606888608568CD600C1D8568E3
:109530006C608460CC6A04EB84041A4D05EB8405EE
:109540004D61CC6A04EB8404164D55F82440641C2C
:10955000CD6A05EB8505134E46F8254010E0124C08
:109560006068C86185680D6201F1180485686C60E7
:1095700084600D4D8D622C462468641C2C6000BFF5
:109580000A4CC86A2468E46AA04204D90122012076
:10959000074C206000E00022104670BD88000020CB
:1095A00064000020C8440020544500204C000020E6
:1095B0007000002070B500240026FFF781F94B48A9
:1095C0000068401E494908600846006800287DD1AF
:1095D00047480068002879D05BE04648C068C46806
:1095E000A06AD4E907128A60D4E907214A6004F12D
:1095F000180142688A4201D1216A41600022A262B8
:109600000168491E01606069D4E902128A60D4E9E8
:1096100002214A60211D42688A4201D1E16841600D
:10962000002262610168491E016094F82C1001203B
:1096300088403149096808432F490860E16A01EB15
:1096400081012E4A02EB81014868A0608268E260D5
:10965000211D826851608160E16A01EB8101274A26
:1096600002EB81026261E16A01EB8101234A52F857
:109670002110491CE26A02EB8202204B43F82210BF
:109680001F49E06A0968C96A884202D301201D495E
:1096900008601848006808B9012000E00020002890
:1096A0009BD00CB1FEF750FF1748056865B100BFAD
:1096B000FFF734FE10B10120124908606D1E002D25
:1096C000F6D10020104908600E4800E009E000686B
:1096D00038B1012630070D490860BFF34F8FBFF343
:1096E0006F8FFFF7FFF8304670BD00008800002044
:1096F0005C0000205445002064000020C844002085
:109700004C000020700000206C00002004ED00E000
:109710002DE9FC4705460E4617469846DDF8289089
:109720002C20FEF7E3FF044654B1002084F8280003
:1097300043463A4631462846CDE90094FEF71FFDE0
:109740002046BDE8FC8700001CB50024FEF7BEFBE8
:109750000748006850B10748042100238A01CDE979
:10976000001005A10648FFF78FFD044620461CBDEA
:109770009400002098000020546D722053766300FE
:10978000418600082DE9FE4305460C4616461F4655
:10979000DDF828804FF000091448006810B30094E9
:1097A00001960295062C15DAFFF7A2FD022808D1D2
:1097B0000023424669460D480068FFF7B5FB814625
:1097C00010E000231A46694608480068FFF7ACFB22
:1097D000814607E000233A46694604480068FFF7DF
:1097E00047FC81464846BDE8FE8300009400002007
:1097F0000000000000000000000000000000000069
:10980000000000F8000000000000003330000000FD
:1098100000100C06100C0600000000000000000004
:1098200040C07840C0784000043F04043F04040076
:10983000007088FC08300000001820FF211E000086
:10984000F008F000E018000000211C031E211E009B
:1098500000F00888700000001E2123241927211021
:1098600010160E00000000000000000000000000C4
:10987000000000E01804020000000007182040006B
:1098800000020418E000000000402018070000005B
:10989000404080F0804040000202010F01020200BF
:1098A000000000F0000000000101011F01010100A3
:1098B000000000000000000080B070000000000008
:1098C0000000000000000000000101010101010191
:1098D0000000000000000000003030000000000028
:1098E00000000000806018040060180601000000FD
:1098F00000E010080810E000000F102020100F00FA
:10990000001010F8000000000020203F2020000080
:1099100000700808088870000030282422213000D8
:1099200000300888884830000018202020110E00E0
:109930000000C02010F8000000070424243F240089
:1099400000F80888880808000019212020110E005E
:1099500000E0108888180000000F112020110E0070
:1099600000380808C83808000000003F0000000068
:109970000070880808887000001C222121221C0029
:1099800000E010080810E0000000312222110F0052
:10999000000000C0C00000000000003030000000E7
:1099A0000000008000000000000080600000000057
:1099B0000000804020100800000102040810200070
:1099C00040404040404040000404040404040400BB
:1099D0000008102040800000002010080402010050
:1099E000007048080808F000000000303601000050
:1099F000C030C828E810E0000718272423140B0003
:109A00000000C038E0000000203C2302022738207C
:109A100008F8888888700000203F202020110E0060
:109A2000C030080808083800071820202010080057
:109A300008F808080810E000203F202020100F0040
:109A400008F88888E8081000203F2020232018000C
:109A500008F88888E8081000203F20000300000074
:109A6000C03008080838000007182020221E020015
:109A700008F808000008F808203F210101213F20D4
:109A8000000808F8080800000020203F20200000FF
:109A900000000808F8080800C08080807F000000EF
:109AA00008F888C028180800203F20012638200028
:109AB00008F8080000000000203F2020202030008F
:109AC00008F8F800F8F80800203F003F003F2000A9
:109AD00008F830C00008F808203F200007183F00B1
:109AE000E01008080810E0000F10202020100F00E0
:109AF00008F808080808F000203F210101010000D3
:109B0000E01008080810E0000F18242438504F0017
:109B100008F8888888887000203F2000030C3020D7
:109B200000708808080838000038202121221C0015
:109B3000180808F8080818000000203F200000005E
:109B400008F808000008F808001F202020201F0047
:109B50000878880000C83808000007380E010000A7
:109B6000F80800F80008F800033C0700073C030071
:109B7000081868808068180820302C03032C3020D7
:109B80000838C800C83808000000203F2000000046
:109B900010080808C838080020382621202018009E
:109BA000000000FE020202000000007F4040400072
:109BB000000C30C000000000000000010638C000AA
:109BC00000020202FE000000004040407F00000052
:109BD0000000040202020400000000000000000077
:109BE0000000000000000000808080808080808075
:109BF000000202040000000000000000000000005D
:109C000000008080808000000019242222223F2052
:109C100008F8008080000000003F112020110E0095
:109C20000000008080800000000E11202020110024
:109C3000000000808088F800000E112020103F20D6
:109C40000000808080800000001F2222222213005A
:109C5000008080F0888888180020203F20200000A5
:109C60000000808080808000006B9494949360005A
:109C700008F8008080800000203F210000203F2065
:109C800000809898000000000020203F2020000065
:109C9000000000809898000000C08080807F000055
:109CA00008F8000080808000203F24022D30200032
:109CB000000808F8000000000020203F20200000DD
:109CC0008080808080808000203F20003F20003FF7
:109CD0008080008080800000203F210000203F2005
:109CE0000000808080800000001F202020201F00B6
:109CF000808000808000000080FFA12020110E00E5
:109D00000000008080808000000E112020A0FF80D5
:109D1000808080008080800020203F212000010082
:109D200000008080808080000033242424241900D7
:109D3000008080E0808000000000001F20200000E4
:109D40008080000000808000001F202020103F2025
:109D5000808080000080808000010E3008060100B5
:109D600080800080008080800F300C030C300F005A
:109D700000808000808080000020312E0E31200085
:109D8000808080000080808080818E7018060100B5
:109D900000808080808080000021302C22213000D3
:109DA00000000000807C020200000000003F4040F4
:109DB00000000000FF00000000000000FF000000A5
:109DC0000002027C800000000040403F00000000D4
:109DD000000601010202040400000000000000006F
:109DE00000000000000000000000008080808080F3
:109DF00080808000000000000000000000000000E3
:109E00000000000080FEFF070707030302020202B2
:109E100002020705070E3CF8C00000000000000029
:109E200000000000FFFFFF00000000000000000035
:109E300000000000000000037FFE000000000000A2
:109E4000000000001FFFFF000000000000000000F5
:109E50000000000000000000C0FF00000000000043
:109E600000000000007FFFC00000000000000000B4
:109E7000000000000080E0FC771F000000000000F0
:109E800000000000000003070F3C787878787870B5
:109E900070783C1E0F03000000000000000000006E
:109EA00000000000000000000000000000000000B2
:109EB00000000000000000000000000000000000A2
:109EC0000000000000000000000000000000000092
:109ED0000000000000000000000000000000000082
:109EE00000000000000000000000000080808000F2
:109EF0000000000000000000000000000000000062
:109F00000000000000003038383C1E0FFFFFFF004B
:109F10000000000000000000000000000000000041
:109F2000000000000000000000000000FFFFFF0034
:109F30000000000000000000000000000000000021
:109F4000000000000000000000000000FFFFFF0014
:109F50000000000000000000000000000000000001
:109F6000000000000000000000000000FFFFFF00F4
:109F700000000000000000000000000000000000E1
:109F8000000000000000000000000000FFFFFF00D4
:109F900000000000000000000000000000000000C1
:109FA000000000000000001C1C1C1C1E1F1F1F1EA8
:109FB0001C1C1C1C1C000000000000000000000015
:109FC0000000000000000000000000000000000091
:109FD0000000000000000000000000000000000081
:109FE0000000000000000000808080808080808071
:109FF00080808000000000000000000000000000E1
:10A00000000000F0787C060301010101010101015B
:10A0100001010103061E7CF0E000000000000000CA
:10A020000000000000000000000000000000000030
:10A03000000000000000C0FF7F00000000000000E2
:10A040000000000000000000000000000000000010
:10A05000000080C0F83E0F03000000000000000078
:10A060000000000000000000000000000080E07818
:10A070003C1F07030000000000000000000000007B
:10A0800000000000000000C0E0F83C0E07030000E4
:10A0900000000000000000000000000000000000C0
:10A0A000000000303C3E3F3F3B38383838383838C5
:10A0B0003838383838383838383800000000000070
:10A0C0000000000000000000000000000000000090
:10A0D0000000000000000000000000000000000080
:10A0E0000000000000000000000000000000000070
:10A0F0000000000000000000000000000000000060
:10A100000000000000000C1C0E0E060707070307E6
:10A110000FFEFEF80000000000000000000000003C
:10A12000000000000000000000000000000080C0EF
:10A13000F0FF7F1F00000000000000000000000092
:10A14000000000000000000000040E0E0E0F0F0FB4
:10A150001D1C0C1C3CF8F0E0E000000000000000BA
:10A1600000000000000000000000000000000000EF
:10A170000000000000E0FFFFFF0000000000000002
:10A180000000000000000000C0C0C0C0E0607070AF
:10A19000783C3C1E0F0F0703000000000000000089
:10A1A00000000000000000000101010000000000AC
:10A1B000000000000000000000000000000000009F
:10A1C000000000000000000000000000000000008F
:10A1D000000000000000000000000000000000007F
:10A1E000000000000000000000000000000000006F
:10A1F000000000000000000000000000000000005F
:10A20000000000000000000000C0E0F0FCFEFEFEC8
:10A21000000000000000000000000000000000003E
:10A2200000000000C0E0F87E1F1F070307FFFFFFCC
:10A23000000000000000000000000000000000001E
:10A24000F0F8FE7F0F0300000000000000FFFFFF9A
:10A2500000000000000000000000000000000000FE
:10A260000F0F0F0F0F0F0F0F0F0F0F0F0FFFFFFF2E
:10A270000F0F0F0F0F0F0F0F0F0000000000000057
:10A2800000000000000000000000000000FFFFFFD1
:10A2900000000000000000000000000000000000BE
:10A2A000000000000000000000000000001F1F1F51
:10A2B000000000000000000000000000000000009E
:10A2C000000000000000000000000000000000008E
:10A2D000000000000000000000000000000000007E
:10A2E000000000000000000000000000000000006E
:10A2F000000000000000000000000000000000005E
:10A300000000000000000000C0F8FFFF1F07070763
:10A310000707070707070707000000000000000005
:10A32000000000000000C0FCFFFF1F030000000051
:10A33000000000000000000000000000000000001D
:10A3400000000000703E3F3F3F3838383878787062
:10A35000F0F0E0E0C080C0800000000000000000DD
:10A3600000000000000000000000000000000000ED
:10A37000000001030F1FFFFFF800000000000000B5
:10A3800000000000000000000000000000000000CD
:10A39000000000008080FFFFFF00000000000000C0
:10A3A000000000000000001C1C1C1C1C1C1C1C1CB1
:10A3B0001C1E1E0F0F0F0707010000000000000009
:10A3C000000000000000000000000000000000008D
:10A3D000000000000000000000000000000000007D
:10A3E000000000000000000000000000000000006D
:10A3F000000000008080808000000000000000005D
:10A40000000000000000000000000080C0E0703884
:10A410001C1E0F07070101010000000000000000E2
:10A4200000000000000000C0F0FC1F070301010055
:10A43000000000000000000000000000000000001C
:10A440000000000000F0FE8F83C0C060602020206C
:10A45000202020606060E0E0C0800000000000007C
:10A4600000000000FCFF1F070101000000000000C9
:10A4700000000000000000000103071CF8000000BD
:10A48000000000007FFFC00000000000000000008E
:10A49000000000000000000080C0F0783F000000D5
:10A4A0000000000000000103020206060604040486
:10A4B000040404040606070507030000000000006A
:10A4C000000000000000000000000000000000008C
:10A4D000000000000000000000000000000000007C
:10A4E000000000000000000000000000000000006C
:10A4F000000000000000000000000000000000005C
:10A500000000020E0E0E0E0E0E0E0E0E0E0E0E0E93
:10A510000E0E0E0E0E0E0E8EDEFE7E3C00000000B5
:10A52000000000000000000000000000000000002B
:10A530000080C0F0F83C1F0703000000000000008E
:10A5400000000000000000000000000080E0F0FCBF
:10A550007E1F070100000000000000000000000056
:10A56000000000000000000080E0F0FE7F1F0701F7
:10A5700000000000000000000000000000000000DB
:10A5800000000000C0F0FC7E3F0F0301000000004F
:10A5900000000000000000000000000000000000BB
:10A5A00000000000010100000000000000000000A9
:10A5B000000000000000000000000000000000009B
:10A5C000000000000000000000000000000000008B
:10A5D000000000000000000000000000000000007B
:10A5E000000000000000000000008080808080806B
:10A5F000808080808080000000000000000000005B
:10A6000000000000C0F0381E0F0703030101010124
:10A6100001010103030FFFFF000000000000000024
:10A62000000000003F71C08000000000000080C0FA
:10A63000E030181C0E0701000000000000000000C0
:10A64000000000000000000103C2F23E0E070F0EE2
:10A650000C1C1C38F0F0E0C080000000000000007E
:10A6600000000000000000F0FFFF0F0000000000ED
:10A6700000000000000107FFFFFCF00000000000E8
:10A680000000000000000003070F1E1C18383838B7
:10A690003838383838382C3F1F0F030000000000CE
:10A6A00000000000000000000000000000000000AA
:10A6B000000000000000000000000000000000009A
:10A6C000000000000000000000000000000000008A
:10A6D000000000000000000000000000000000007A
:10A6E000000000000000000000000000000000006A
:10A6F000000000000000000000000000000000005A
:10A7000000000080E0E07038383C1C141E0E0E067D
:10A710000602020604CC78000000000000000000E1
:10A7200000FCFE07010000000000000000808080A7
:10A73000C0C0E078FF07000000000000000000003B
:10A7400000030F0F0C0C0C0C0C0E0E070707070371
:10A750000101C0FF7F0000000000000000000000B9
:10A7600000000000000000000000000000000000E9
:10A77000F0FE3F03000000000000000000000000A9
:10A780000000000000000000000000000000E0FFEA
:10A79000FF3F00000000000000000000000000007B
:10A7A000000000000000000000000000001C0F0F6F
:10A7B0000100000000000000000000000000000098
:10A7C0000000000000000000000000000000000089
:10A7D0000000000000000000000000000000000079
:10A7E0000000000000000000001E3F3F3F1E000070
:10A7F0000000000000000000000000000000000059
:10A80000000000000000000000F0F8F8F8F0000080
:10A810000000010101000000000000000000000035
:10A820000000000000000000000000000000000028
:10A830000000000000000000000000000000000018
:10A840000000000000000000000000000000000008
:10A8500000000000000000000000000000000000F8
:10A8600000000000000000000000000000000000E8
:10A8700000000000000000000000000000000000D8
:10A8800000000000000000000000000000000000C8
:10A8900000000000000000000000000000000000B8
:10A8A00000000000000000000000000000000000A8
:10A8B0000000000000000000000000000000000098
:10A8C0000000FCFCF00000000000000000000000A0
:10A8D0000000000000000000000000000000000078
:10A8E000000000000000000000000000004040E008
:10A8F000F0FCFCF8E06040404040404040C0C0C038
:10A90000C0C040404040404040404040404060E087
:10A91000F8FCFCF06040400000000000404060F0A7
:10A92000F0FEFFFFFFFC7060400000000000000030
:10A930000000000000000000000000000000000017
:10A94000000000000000000000000000000000FF08
:10A95000FFFFFFFFFF00FEFEFEFCFC4444474747AD
:10A9600047474544FCFEFEFEFCFC00F4F4F4F4FC16
:10A97000FDFFFFFE9F9F9E9CFEFEFEFEFCFCC4E4CE
:10A98000E4F5FFFFFFE4C4C4FEFEFEFEFEFC000093
:10A9900000000000000000000000000000000000B7
:10A9A0000000000000000000000000000000C0FFE8
:10A9B000FFFFFFBFCFC0CFCFEFEFE7C484FCFCFCAD
:10A9C000FCFCFC84CFEFEFEFCFC7C0FFFFFFFFFF22
:10A9D000FFFFFFFF3F3F3F1FFFFF7F7F3F1F189994
:10A9E00099DBFFFFFF9B19183F3F7F7F7F0300002C
:10A9F0000000000000000000000000000000000057
:10AA00000000000000000000000000080C07070321
:10AA1000010101030707050909080000003F3F3F46
:10AA20003F1F070000080809050707030301003F4F
:10AA30003F3F1F0F00000000000000000003030F55
:10AA40000F7FFFFFFF3F0703010000000000000031
:10AA500000000000000000000000000000000000F6
:10AA600000000000000000000000000000000000E6
:10AA700000000000000000000000000000000000D6
:10AA800000000000000000000000000000000000C6
:10AA900000000000000000000000000000000000B6
:10AAA0000000FFFF1F000000000000000000000089
:10AAB0000000000000000000000000000000000096
:10AAC0000000000000000000000000000000000086
:10AAD0000000000000000000000000000000000076
:10AAE0000000000000000000000000000000000066
:10AAF0000000000000000000000000000000000056
:10AB00000000010100000000000000000000000043
:10AB10000000000000000000000000000000000035
:10AB2000FFFFFFFFFFFFFFFFFFFF07070707070705
:10AB300007070707070707070707070707070707A5
:10AB40000707070707070707070707070707070795
:10AB50000707070707F7FFFFFFFFFFFFFFFFF707E5
:10AB60000707070707070707070707070707070775
:10AB7000070707070707070707FFFFFFFFFFFFFF9D
:10AB8000FFFFFFFFFFFFFFFFFFFF000000000000CF
:10AB900000000000000000000000000000000000B5
:10ABA00000000000000000000000000000000000A5
:10ABB0000000000000C0FFFFFFFF010101010000D5
:10ABC0000000000000000000000000000000000085
:10ABD000000000000000000000FFFFFFFFFFFFFF7C
:10ABE000FFFFFFFFFFFFFFFFFFFF0000000000006F
:10ABF0000000000000000000000000000000000055
:10AC00000000000000000000C0C0E0F0F0F0F0E044
:10AC1000E0C0C0F0FEFFFFFF0700000000000000E2
:10AC20000000000000000000000000000000000024
:10AC3000000000000000000000FFFFFFFFFFFFFF1B
:10AC4000FFFFFFFFFFFFFFFFFFFF0000000000000E
:10AC500000000000000000000000000000000000F4
:10AC600000000000C0C0F0F8F8F8FDFFFFFFFFFF94
:10AC7000FFFFFFFFFFF780800000000000000000E2
:10AC800000000000000000000000000000000000C4
:10AC9000000000000000000000FFFFFFFFFFFFFFBB
:10ACA000FFFFFFFFFFFFFFFFFFFF000000000000AE
:10ACB0000000000000000000000000000080C0F064
:10ACC000F0FC3E1F1F1F0F03C1C1C3FFFFFFFFFFAB
:10ACD000FFFFFFFFFFFF9F9F00000000000000003C
:10ACE0000000000000000000000000000000000064
:10ACF000000000000000000000FFFFFFFFFFFFFF5B
:10AD0000FFFFFFFFFFFFFFFFFFFF0000000000004D
:10AD1000000000000000000000000000030787831F
:10AD200083C3E0F0F8F8FCFCFFFFFFFF7F7F7F3F6D
:10AD30007F7F7FFFFFFFFFFFFFFCF8F8F8F0E0E008
:10AD4000E0808080000000000000000000000000A3
:10AD5000000000000000000000FFFFFFFFFFFFFFFA
:10AD6000FFFFFFFFFFFFFFFFFFFF0000000000C02D
:10AD7000C08080E0F0F8F8F8FC7E7E7E3F3F1F0F39
:10AD80000F0F07030303030101010000000000008F
:10AD90000000000000010101010303030303070F8A
:10ADA0000F1F1F3F7F7F7EFCFCFCF8F0E0C0C0005F
:10ADB000008080800000000000FFFFFFFFFFFFFF1A
:10ADC000FFFFFFFFFFFFFFFFFFFFDCDEDEDFDFDF58
:10ADD000DFC7C7C7C1C1C0C0C0C0C0C0C0C0C0C03D
:10ADE000C0C0C0C0C0C0C0C0C0C0C0C0C0C0C0C063
:10ADF000C0C0C0C0C0C0C0C0C0C0C0C0C0C0C0C053
:10AE0000C0C0C0C0C0C0C0C0C1C1C1C3C7DFDFFFB8
:10AE1000FFDFDFDECEC7C7C7C3FFFFFFFFFFFFFFB8
:10AE2000FFFFFFFFFFFFFFFFFF177777F7E7E7E77A
:10AE3000C7C78707070707070707070707070707A2
:10AE40000707070707070707070707070707070792
:10AE50000707070707070707070707070707070782
:10AE60000707070707070707070707070707070772
:10AE7000070707070707070707FFFFFFFFFFFFFF9A
:10AE8000FFFFFFFFFFFFFFFFFF0000000107071F9D
:10AE90001F1F010000000000000000000000000073
:10AEA00000000000000000000000000000000000A2
:10AEB0000000000000000000000000000000000092
:10AEC0000000000000000000000000000000000082
:10AED00000C0C0FC7E7E3E0F0FFFFFFFFFFFFFFFA5
:10AEE000FFFFFFFFFFFFFFFFFF000000000000006B
:10AEF0000000000000000000202060E0E0C0000032
:10AF00000000000000000000000000000000000041
:10AF10000000000000000000000000000000000031
:10AF200000000000000000008080C0606020000081
:10AF3000000101010000000000FFFFFFFFFFFFFF15
:10AF4000FFFFFFFFFFFFFFFFFF000000000000000A
:10AF500000000000000000000000000101010000EE
:10AF6000F0F0F0F0D0D0D0000000000000000000B1
:10AF700000000000000000000000C0C0C0F0F0F0C1
:10AF8000E0E04000000303030101000000000000B6
:10AF9000000000000000000000FFFFFFFFFFFFFFB8
:10AFA000FFFFFFFFFFFFFFFFFF000000202020004A
:10AFB00000000000000000007878F8F8F8F0F0F0E9
:10AFC000010101010101010000000040E0E0E0E4B6
:10AFD000E4E4E0E0C000000000000101030303031B
:10AFE000E1E1F0F0F0F0F0F00000000000000000FF
:10AFF000000000000000202020FFFFFFFFFFFFFFF8
:10B00000FFFFFFFFFFFFFFFFFF0000000000000049
:10B010000000000000003838383809010101000044
:10B020000000000000000000000000808F8F1F1F44
:10B030001F1F0707010000000000000000000000C3
:10B040000303070707838080000000000000000062
:10B05000000000000000000000FFFFFFFFFFFFFFF7
:10B06000FFFFFFFFFFFFFFFFFF00000000000000E9
:10B070000000000000000000000000808080000050
:10B0800000000000000000000000000001010101BC
:10B0900001010101000000000000000000000000AC
:10B0A0000000002020230303000000000000000037
:10B0B000000000000000000000FFFFFFFFFFFFFF97
:10B0C000FFFFFFFFFFFFFFFFFFE0E0E0E0E0E0E069
:10B0D000E0E0E0E0E0E0E0E0E0E0E0E0E0E0E0E070
:10B0E000E0E0E0E0E0E0E4E4E4E0E0E0E0E0E0E054
:10B0F000E0E0E0E0E0E0E0E0E0E4E4E4E0E6E6E632
:10B10000E2E2E0E0E0E0E0E0E0E0E0E0E0E0E0E03B
:10B11000E0E0E0E0E0E0E0E0E0FFFFFFFFFFFFFF56
:10B120001F1D1F1E1F1E1F1F1E1F1E1F4CB10008AC
:10B1300000000020A400000028610008F0B1000811
:10B14000A4000020A44B000044610008000000009F
:10B15000E8070900140013000A003700000000008F
:10B1600000000000000000000000000000000000DF
:10B1700000000000000000000000000000000000CF
:10B1800000000000000000000000000000000000BF
:10B1900000000000000000000000000000000000AF
:10B1A000000000000000000000000000000000009F
:10B1B000000000000000000000000000000000008F
:10B1C000000000000000000000000000000000007F
:10B1D000040000000000000000000000000000006B
:10B1E000000000000000000000000000AAAAAAAAB7
:04000005080060EDA2
:00000001FF
